{
  "transactions": [
    {
      "hash": "0x496d760060ebd9361bb6f6b5bf33cf5d33aa8274d7d081af3ff44c48a3175644",
      "transactionType": "CALL",
      "contractName": null,
      "contractAddress": "0xdeae5be232d46d0208f0b8fc50d9a77da771a772",
      "function": "mintNft(string)",
      "arguments": [
        "ipfs://bafybeig37ioir76s7mg5oobetncojcm3c3hxasyd4rvid4jqhy4gkaheg4/?filename=0-PUG.json"
      ],
      "transaction": {
        "from": "0x1a6813bdfe29e9a168e13c53db95109a27a86073",
        "to": "0xdeae5be232d46d0208f0b8fc50d9a77da771a772",
        "gas": "0x3da7f",
        "value": "0x0",
        "input": "0xda86f4a900000000000000000000000000000000000000000000000000000000000000200000000000000000000000000000000000000000000000000000000000000057697066733a2f2f62616679626569673337696f6972373673376d67356f6f6265746e636f6a636d3363336878617379643472766964346a71687934676b61686567342f3f66696c656e616d653d302d5055472e6a736f6e000000000000000000",
        "nonce": "0x15",
        "chainId": "0xaa36a7"
      },
      "additionalContracts": [],
      "isFixedGasLimit": false
    }
  ],
  "receipts": [
    {
      "status": "0x1",
      "cumulativeGasUsed": "0xd108dc",
      "logs": [
        {
          "address": "0xdeae5be232d46d0208f0b8fc50d9a77da771a772",
          "topics": [
            "0xddf252ad1be2c89b69c2b068fc378daa952ba7f163c4a11628f55a4df523b3ef",
            "0x0000000000000000000000000000000000000000000000000000000000000000",
            "0x0000000000000000000000001a6813bdfe29e9a168e13c53db95109a27a86073",
            "0x0000000000000000000000000000000000000000000000000000000000000000"
          ],
          "data": "0x",
          "blockHash": "0xf2da0a4f34f707783370fddd6a019305d9551ee1fdca839ce7bdf190a507510e",
          "blockNumber": "0x778176",
          "transactionHash": "0x496d760060ebd9361bb6f6b5bf33cf5d33aa8274d7d081af3ff44c48a3175644",
          "transactionIndex": "0x9c",
          "logIndex": "0xcb",
          "removed": false
        }
      ],
      "logsBloom": "0x00000000000000000000000000000000000000000000000000000000000000000000000000000000000000000000000080000000000000000000000000000000000000000000000000000008000000000000000000000000000000000000000000000000420000000000000000000800000008000000000000000010000000000000000000000000000000000000000000000000000000000000000000000000000000000000000000000000000000000000000000000000000000000000000020000002000000000000000000000000000000000000000000000000000020000000000000000000000000000000000000000000000200000000000000100000",
      "type": "0x2",
      "transactionHash": "0x496d760060ebd9361bb6f6b5bf33cf5d33aa8274d7d081af3ff44c48a3175644",
      "transactionIndex": "0x9c",
      "blockHash": "0xf2da0a4f34f707783370fddd6a019305d9551ee1fdca839ce7bdf190a507510e",
      "blockNumber": "0x778176",
      "gasUsed": "0x2ca35",
      "effectiveGasPrice": "0x6cc295f7d",
      "from": "0x1a6813bdfe29e9a168e13c53db95109a27a86073",
      "to": "0xdeae5be232d46d0208f0b8fc50d9a77da771a772",
      "contractAddress": null
    }
  ],
  "libraries": [],
  "pending": [],
  "returns": {},
  "timestamp": 1741103079,
  "chain": 11155111,
  "commit": "15b775e"
}